{
  "contractName": "TrustBird",
  "abi": [
    {
      "inputs": [],
      "payable": false,
      "stateMutability": "nonpayable",
      "type": "constructor"
    },
    {
      "constant": true,
      "inputs": [],
      "name": "totalContract",
      "outputs": [
        {
          "internalType": "uint32",
          "name": "",
          "type": "uint32"
        }
      ],
      "payable": false,
      "stateMutability": "view",
      "type": "function"
    },
    {
      "constant": true,
      "inputs": [],
      "name": "totalTrust",
      "outputs": [
        {
          "internalType": "uint32",
          "name": "",
          "type": "uint32"
        }
      ],
      "payable": false,
      "stateMutability": "view",
      "type": "function"
    },
    {
      "constant": true,
      "inputs": [
        {
          "internalType": "address",
          "name": "client",
          "type": "address"
        }
      ],
      "name": "getHashValueOfTrust",
      "outputs": [
        {
          "internalType": "bytes32[]",
          "name": "",
          "type": "bytes32[]"
        }
      ],
      "payable": false,
      "stateMutability": "view",
      "type": "function"
    },
    {
      "constant": true,
      "inputs": [
        {
          "internalType": "address",
          "name": "client",
          "type": "address"
        }
      ],
      "name": "getHashValueOfContract",
      "outputs": [
        {
          "internalType": "bytes32[]",
          "name": "",
          "type": "bytes32[]"
        }
      ],
      "payable": false,
      "stateMutability": "view",
      "type": "function"
    },
    {
      "constant": false,
      "inputs": [
        {
          "internalType": "address",
          "name": "client",
          "type": "address"
        },
        {
          "internalType": "bytes32",
          "name": "hashValue",
          "type": "bytes32"
        },
        {
          "internalType": "uint16",
          "name": "index",
          "type": "uint16"
        }
      ],
      "name": "addHashValueOfTrust",
      "outputs": [],
      "payable": false,
      "stateMutability": "nonpayable",
      "type": "function"
    },
    {
      "constant": false,
      "inputs": [
        {
          "internalType": "address",
          "name": "client",
          "type": "address"
        },
        {
          "internalType": "bytes32",
          "name": "hashValue",
          "type": "bytes32"
        },
        {
          "internalType": "uint16",
          "name": "index",
          "type": "uint16"
        }
      ],
      "name": "addHashValueOfContract",
      "outputs": [],
      "payable": false,
      "stateMutability": "nonpayable",
      "type": "function"
    },
    {
      "constant": false,
      "inputs": [
        {
          "internalType": "address",
          "name": "client",
          "type": "address"
        },
        {
          "internalType": "uint16",
          "name": "index",
          "type": "uint16"
        }
      ],
      "name": "removeHashValueOfTrust",
      "outputs": [],
      "payable": false,
      "stateMutability": "nonpayable",
      "type": "function"
    },
    {
      "constant": false,
      "inputs": [
        {
          "internalType": "address",
          "name": "client",
          "type": "address"
        },
        {
          "internalType": "uint16",
          "name": "index",
          "type": "uint16"
        }
      ],
      "name": "removeHashValueOfContract",
      "outputs": [],
      "payable": false,
      "stateMutability": "nonpayable",
      "type": "function"
    }
  ],
  "bytecode": "0x608060405234801561001057600080fd5b5033600260006101000a81548173ffffffffffffffffffffffffffffffffffffffff021916908373ffffffffffffffffffffffffffffffffffffffff16021790555061ffff600260146101000a81548161ffff021916908361ffff160217905550610b96806100806000396000f3fe608060405234801561001057600080fd5b50600436106100885760003560e01c80639ce7858b1161005b5780639ce7858b1461026d578063b08cd2b0146102c9578063b8fd4076146102f3578063b9ddd73d1461034557610088565b8063113c09d81461008d5780636eb23c861461012657806383c9c366146101825780639a4266021461021b575b600080fd5b6100cf600480360360208110156100a357600080fd5b81019080803573ffffffffffffffffffffffffffffffffffffffff16906020019092919050505061036f565b6040518080602001828103825283818151815260200191508051906020019060200280838360005b838110156101125780820151818401526020810190506100f7565b505050509050019250505060405180910390f35b6101806004803603606081101561013c57600080fd5b81019080803573ffffffffffffffffffffffffffffffffffffffff16906020019092919080359060200190929190803561ffff169060200190929190505050610405565b005b6101c46004803603602081101561019857600080fd5b81019080803573ffffffffffffffffffffffffffffffffffffffff1690602001909291905050506105f2565b6040518080602001828103825283818151815260200191508051906020019060200280838360005b838110156102075780820151818401526020810190506101ec565b505050509050019250505060405180910390f35b61026b6004803603604081101561023157600080fd5b81019080803573ffffffffffffffffffffffffffffffffffffffff169060200190929190803561ffff169060200190929190505050610689565b005b6102c76004803603606081101561028357600080fd5b81019080803573ffffffffffffffffffffffffffffffffffffffff16906020019092919080359060200190929190803561ffff1690602001909291905050506107e8565b005b6102d16109d7565b604051808263ffffffff1663ffffffff16815260200191505060405180910390f35b6103436004803603604081101561030957600080fd5b81019080803573ffffffffffffffffffffffffffffffffffffffff169060200190929190803561ffff1690602001909291905050506109ed565b005b61034d610b4b565b604051808263ffffffff1663ffffffff16815260200191505060405180910390f35b60606000808373ffffffffffffffffffffffffffffffffffffffff1673ffffffffffffffffffffffffffffffffffffffff1681526020019081526020016000208054806020026020016040519081016040528092919081815260200182805480156103f957602002820191906000526020600020905b8154815260200190600101908083116103e5575b50505050509050919050565b600260009054906101000a900473ffffffffffffffffffffffffffffffffffffffff1673ffffffffffffffffffffffffffffffffffffffff163373ffffffffffffffffffffffffffffffffffffffff16146104c8576040517f08c379a000000000000000000000000000000000000000000000000000000000815260040180806020018281038252600e8152602001807f57726f6e6720617070726f61636800000000000000000000000000000000000081525060200191505060405180910390fd5b6002601681819054906101000a900463ffffffff168092919060010191906101000a81548163ffffffff021916908363ffffffff16021790555050600260149054906101000a900461ffff1661ffff168161ffff161415610590576000808473ffffffffffffffffffffffffffffffffffffffff1673ffffffffffffffffffffffffffffffffffffffff1681526020019081526020016000208290806001815401808255809150509060018203906000526020600020016000909192909190915055506105ed565b816000808573ffffffffffffffffffffffffffffffffffffffff1673ffffffffffffffffffffffffffffffffffffffff1681526020019081526020016000208261ffff16815481106105de57fe5b90600052602060002001819055505b505050565b6060600160008373ffffffffffffffffffffffffffffffffffffffff1673ffffffffffffffffffffffffffffffffffffffff16815260200190815260200160002080548060200260200160405190810160405280929190818152602001828054801561067d57602002820191906000526020600020905b815481526020019060010190808311610669575b50505050509050919050565b600260009054906101000a900473ffffffffffffffffffffffffffffffffffffffff1673ffffffffffffffffffffffffffffffffffffffff163373ffffffffffffffffffffffffffffffffffffffff161461074c576040517f08c379a000000000000000000000000000000000000000000000000000000000815260040180806020018281038252600e8152602001807f57726f6e6720617070726f61636800000000000000000000000000000000000081525060200191505060405180910390fd5b6002601a81819054906101000a900463ffffffff16809291906001900391906101000a81548163ffffffff021916908363ffffffff16021790555050600160008373ffffffffffffffffffffffffffffffffffffffff1673ffffffffffffffffffffffffffffffffffffffff1681526020019081526020016000208161ffff16815481106107d657fe5b90600052602060002001600090555050565b600260009054906101000a900473ffffffffffffffffffffffffffffffffffffffff1673ffffffffffffffffffffffffffffffffffffffff163373ffffffffffffffffffffffffffffffffffffffff16146108ab576040517f08c379a000000000000000000000000000000000000000000000000000000000815260040180806020018281038252600e8152602001807f57726f6e6720617070726f61636800000000000000000000000000000000000081525060200191505060405180910390fd5b6002601a81819054906101000a900463ffffffff168092919060010191906101000a81548163ffffffff021916908363ffffffff16021790555050600260149054906101000a900461ffff1661ffff168161ffff16141561097457600160008473ffffffffffffffffffffffffffffffffffffffff1673ffffffffffffffffffffffffffffffffffffffff1681526020019081526020016000208290806001815401808255809150509060018203906000526020600020016000909192909190915055506109d2565b81600160008573ffffffffffffffffffffffffffffffffffffffff1673ffffffffffffffffffffffffffffffffffffffff1681526020019081526020016000208261ffff16815481106109c357fe5b90600052602060002001819055505b505050565b6002601a9054906101000a900463ffffffff1681565b600260009054906101000a900473ffffffffffffffffffffffffffffffffffffffff1673ffffffffffffffffffffffffffffffffffffffff163373ffffffffffffffffffffffffffffffffffffffff1614610ab0576040517f08c379a000000000000000000000000000000000000000000000000000000000815260040180806020018281038252600e8152602001807f57726f6e6720617070726f61636800000000000000000000000000000000000081525060200191505060405180910390fd5b6002601681819054906101000a900463ffffffff16809291906001900391906101000a81548163ffffffff021916908363ffffffff160217905550506000808373ffffffffffffffffffffffffffffffffffffffff1673ffffffffffffffffffffffffffffffffffffffff1681526020019081526020016000208161ffff1681548110610b3957fe5b90600052602060002001600090555050565b600260169054906101000a900463ffffffff168156fea265627a7a723158207c6d5b8f7916d72c75403d219b24d4bce50d3d2ac0a986551befcfeeb7c27b4864736f6c63430005100032",
  "source": "pragma solidity ^0.5.0;\r\n\r\ncontract TrustBird {\r\n    mapping(address => bytes32[]) private hashValueOfTrust;\r\n    mapping(address => bytes32[]) private hashValueOfContract;\r\n    \r\n    address private owner;\r\n    \r\n    uint16 maxValue;\r\n    \r\n    uint32 public totalTrust;\r\n    uint32 public totalContract;\r\n    \r\n    constructor() public {\r\n        owner = msg.sender;\r\n        maxValue = 65535;\r\n    }\r\n    \r\n    function getHashValueOfTrust(address client) public view returns(bytes32[] memory) {\r\n        return hashValueOfTrust[client];\r\n    }\r\n    \r\n    function getHashValueOfContract(address client) public view returns(bytes32[] memory) {\r\n        return hashValueOfContract[client];\r\n    }\r\n    \r\n    function addHashValueOfTrust(address client, bytes32 hashValue, uint16 index) public {\r\n        require(msg.sender == owner, \"Wrong approach\");\r\n        \r\n        totalTrust++;\r\n        \r\n        if(index == maxValue)\r\n            hashValueOfTrust[client].push(hashValue);\r\n        else\r\n            hashValueOfTrust[client][index] = hashValue;\r\n    }\r\n    \r\n    function addHashValueOfContract(address client, bytes32 hashValue, uint16 index) public {\r\n        require(msg.sender == owner, \"Wrong approach\");\r\n        \r\n        totalContract++;\r\n    \r\n        if(index == maxValue)\r\n            hashValueOfContract[client].push(hashValue);\r\n        else\r\n            hashValueOfContract[client][index] = hashValue;\r\n    }\r\n    \r\n    function removeHashValueOfTrust(address client, uint16 index) public {\r\n        require(msg.sender == owner, \"Wrong approach\");\r\n        \r\n        totalTrust--;\r\n        delete hashValueOfTrust[client][index];\r\n    }\r\n    \r\n    function removeHashValueOfContract(address client, uint16 index) public {\r\n        require(msg.sender == owner, \"Wrong approach\");\r\n        \r\n        totalContract--;\r\n        delete hashValueOfContract[client][index];\r\n    }\r\n}",
  "sourcePath": "c:\\apps\\TrustBird_truffle\\contracts\\TrustBird.sol",
  "compiler": {
    "name": "solc",
    "version": "0.5.16+commit.9c3226ce.Emscripten.clang"
  },
  "schemaVersion": "3.2.2",
  "updatedAt": "2020-10-06T02:37:50.186Z",
  "networkType": "ethereum",
  "devdoc": {
    "methods": {}
  },
  "userdoc": {
    "methods": {}
  }
}