{
  "contractName": "TrustBird",
  "abi": [
    {
      "inputs": [],
      "payable": false,
      "stateMutability": "view",
      "type": "function",
      "constant": true,
      "name": "totalContract",
      "outputs": [
        {
          "name": "",
          "type": "uint32"
        }
      ]
    },
    {
      "constant": true,
      "inputs": [],
      "name": "totalTrust",
      "outputs": [
        {
          "internalType": "uint32",
          "name": "",
          "type": "uint32"
        }
      ],
      "payable": false,
      "stateMutability": "view",
      "type": "function"
    },
    {
      "constant": true,
      "inputs": [],
      "name": "totalTrust",
      "outputs": [
        {
          "internalType": "uint32",
          "name": "",
          "type": "uint32"
        }
      ],
      "payable": false,
      "stateMutability": "nonpayable",
      "type": "constructor"
    },
    {
      "constant": true,
      "inputs": [
        {
          "internalType": "string",
          "name": "email",
          "type": "string"
        }
      ],
      "name": "getHashValueOfTrust",
      "outputs": [
        {
          "internalType": "string[]",
          "name": "",
          "type": "string[]"
        }
      ],
      "payable": false,
      "stateMutability": "view",
      "type": "function"
    },
    {
      "constant": false,
      "inputs": [
        {
          "internalType": "string",
          "name": "email",
          "type": "string"
        },
        {
          "internalType": "string",
          "name": "token",
          "type": "string"
        },
        {
          "internalType": "uint16",
          "name": "index",
          "type": "uint16"
        }
      ],
      "name": "addHashValueOfTrust",
      "outputs": [],
      "payable": false,
      "stateMutability": "nonpayable",
      "type": "function"
    },
    {
      "constant": false,
      "inputs": [
        {
          "internalType": "string",
          "name": "email",
          "type": "string"
        },
        {
          "internalType": "uint16",
          "name": "index",
          "type": "uint16"
        }
      ],
      "name": "removeHashValueOfTrust",
      "outputs": [],
      "payable": false,
      "stateMutability": "nonpayable",
      "type": "function"
    },
    {
      "constant": true,
      "inputs": [
        {
          "internalType": "string",
          "name": "token",
          "type": "string"
        }
      ],
      "name": "getHashValueOfContract",
      "outputs": [
        {
          "internalType": "string",
          "name": "",
          "type": "string"
        }
      ],
      "payable": false,
      "stateMutability": "view",
      "type": "function"
    },
    {
      "constant": false,
      "inputs": [
        {
          "internalType": "string",
          "name": "trustToken",
          "type": "string"
        },
        {
          "internalType": "string",
          "name": "contractToken",
          "type": "string"
        }
      ],
      "name": "addHashValueOfContract",
      "outputs": [],
      "payable": false,
      "stateMutability": "nonpayable",
      "type": "function"
    },
    {
      "constant": false,
      "inputs": [
        {
          "internalType": "string",
          "name": "trustToken",
          "type": "string"
        }
      ],
      "name": "removeHashValueOfContract",
      "outputs": [],
      "payable": false,
      "stateMutability": "nonpayable",
      "type": "function"
    }
  ],
  "bytecode": "0x608060405234801561001057600080fd5b5033600260006101000a81548173ffffffffffffffffffffffffffffffffffffffff021916908373ffffffffffffffffffffffffffffffffffffffff16021790555061ffff600260146101000a81548161ffff021916908361ffff160217905550611081806100806000396000f3fe60806040526004361061008e576000357c0100000000000000000000000000000000000000000000000000000000900463ffffffff1680638b0f4abe1461009357806398b36d9a146100d0578063b08cd2b01461010d578063b9ddd73d14610138578063caa08c9114610163578063cf1b1b7f1461018c578063ee3e8531146101b5578063f93efcc1146101de575b600080fd5b34801561009f57600080fd5b506100ba60048036036100b59190810190610c23565b610207565b6040516100c79190610ee5565b60405180910390f35b3480156100dc57600080fd5b506100f760048036036100f29190810190610c23565b610314565b6040516101049190610ec3565b60405180910390f35b34801561011957600080fd5b50610122610468565b60405161012f9190610f27565b60405180910390f35b34801561014457600080fd5b5061014d61047e565b60405161015a9190610f27565b60405180910390f35b34801561016f57600080fd5b5061018a60048036036101859190810190610d4f565b610494565b005b34801561019857600080fd5b506101b360048036036101ae9190810190610c23565b6105f8565b005b3480156101c157600080fd5b506101dc60048036036101d79190810190610cd0565b610740565b005b3480156101ea57600080fd5b5061020560048036036102009190810190610c64565b61097b565b005b60606001826040518082805190602001908083835b602083101515610241578051825260208201915060208101905060208303925061021c565b6001836020036101000a03801982511681845116808217855250505050505090500191505090815260200160405180910390208054600181600116156101000203166002900480601f0160208091040260200160405190810160405280929190818152602001828054600181600116156101000203166002900480156103085780601f106102dd57610100808354040283529160200191610308565b820191906000526020600020905b8154815290600101906020018083116102eb57829003601f168201915b50505050509050919050565b60606000826040518082805190602001908083835b60208310151561034e5780518252602082019150602081019050602083039250610329565b6001836020036101000a0380198251168184511680821785525050505050509050019150509081526020016040518091039020805480602002602001604051908101604052809291908181526020016000905b8282101561045d578382906000526020600020018054600181600116156101000203166002900480601f0160208091040260200160405190810160405280929190818152602001828054600181600116156101000203166002900480156104495780601f1061041e57610100808354040283529160200191610449565b820191906000526020600020905b81548152906001019060200180831161042c57829003601f168201915b5050505050815260200190600101906103a1565b505050509050919050565b6002601a9054906101000a900463ffffffff1681565b600260169054906101000a900463ffffffff1681565b600260009054906101000a900473ffffffffffffffffffffffffffffffffffffffff1673ffffffffffffffffffffffffffffffffffffffff163373ffffffffffffffffffffffffffffffffffffffff16141515610526576040517f08c379a000000000000000000000000000000000000000000000000000000000815260040161051d90610f07565b60405180910390fd5b6002601681819054906101000a900463ffffffff16809291906001900391906101000a81548163ffffffff021916908363ffffffff160217905550506000826040518082805190602001908083835b60208310151561059a5780518252602082019150602081019050602083039250610575565b6001836020036101000a03801982511681845116808217855250505050505090500191505090815260200160405180910390208161ffff168154811015156105de57fe5b9060005260206000200160006105f49190610acc565b5050565b600260009054906101000a900473ffffffffffffffffffffffffffffffffffffffff1673ffffffffffffffffffffffffffffffffffffffff163373ffffffffffffffffffffffffffffffffffffffff1614151561068a576040517f08c379a000000000000000000000000000000000000000000000000000000000815260040161068190610f07565b60405180910390fd5b6002601a81819054906101000a900463ffffffff16809291906001900391906101000a81548163ffffffff021916908363ffffffff160217905550506001816040518082805190602001908083835b6020831015156106fe57805182526020820191506020810190506020830392506106d9565b6001836020036101000a0380198251168184511680821785525050505050509050019150509081526020016040518091039020600061073d9190610acc565b50565b600260009054906101000a900473ffffffffffffffffffffffffffffffffffffffff1673ffffffffffffffffffffffffffffffffffffffff163373ffffffffffffffffffffffffffffffffffffffff161415156107d2576040517f08c379a00000000000000000000000000000000000000000000000000000000081526004016107c990610f07565b60405180910390fd5b6002601681819054906101000a900463ffffffff168092919060010191906101000a81548163ffffffff021916908363ffffffff16021790555050600260149054906101000a900461ffff1661ffff168161ffff1614156108da576000836040518082805190602001908083835b6020831015156108655780518252602082019150602081019050602083039250610840565b6001836020036101000a03801982511681845116808217855250505050505090500191505090815260200160405180910390208290806001815401808255809150509060018203906000526020600020016000909192909190915090805190602001906108d3929190610b14565b5050610976565b816000846040518082805190602001908083835b60208310151561091357805182526020820191506020810190506020830392506108ee565b6001836020036101000a03801982511681845116808217855250505050505090500191505090815260200160405180910390208261ffff1681548110151561095757fe5b906000526020600020019080519060200190610974929190610b14565b505b505050565b600260009054906101000a900473ffffffffffffffffffffffffffffffffffffffff1673ffffffffffffffffffffffffffffffffffffffff163373ffffffffffffffffffffffffffffffffffffffff16141515610a0d576040517f08c379a0000000000000000000000000000000000000000000000000000000008152600401610a0490610f07565b60405180910390fd5b6002601a81819054906101000a900463ffffffff168092919060010191906101000a81548163ffffffff021916908363ffffffff16021790555050806001836040518082805190602001908083835b602083101515610a815780518252602082019150602081019050602083039250610a5c565b6001836020036101000a03801982511681845116808217855250505050505090500191505090815260200160405180910390209080519060200190610ac7929190610b14565b505050565b50805460018160011615610100020316600290046000825580601f10610af25750610b11565b601f016020900490600052602060002090810190610b109190610b94565b5b50565b828054600181600116156101000203166002900490600052602060002090601f016020900481019282601f10610b5557805160ff1916838001178555610b83565b82800160010185558215610b83579182015b82811115610b82578251825591602001919060010190610b67565b5b509050610b909190610b94565b5090565b610bb691905b80821115610bb2576000816000905550600101610b9a565b5090565b90565b600082601f8301121515610bcc57600080fd5b8135610bdf610bda82610f6f565b610f42565b91508082526020830160208301858383011115610bfb57600080fd5b610c06838284610ff4565b50505092915050565b6000610c1b8235610fe6565b905092915050565b600060208284031215610c3557600080fd5b600082013567ffffffffffffffff811115610c4f57600080fd5b610c5b84828501610bb9565b91505092915050565b60008060408385031215610c7757600080fd5b600083013567ffffffffffffffff811115610c9157600080fd5b610c9d85828601610bb9565b925050602083013567ffffffffffffffff811115610cba57600080fd5b610cc685828601610bb9565b9150509250929050565b600080600060608486031215610ce557600080fd5b600084013567ffffffffffffffff811115610cff57600080fd5b610d0b86828701610bb9565b935050602084013567ffffffffffffffff811115610d2857600080fd5b610d3486828701610bb9565b9250506040610d4586828701610c0f565b9150509250925092565b60008060408385031215610d6257600080fd5b600083013567ffffffffffffffff811115610d7c57600080fd5b610d8885828601610bb9565b9250506020610d9985828601610c0f565b9150509250929050565b6000610dae82610fa8565b80845260208401935083602082028501610dc785610f9b565b60005b84811015610e00578383038852610de2838351610e47565b9250610ded82610fc9565b9150602088019750600181019050610dca565b508196508694505050505092915050565b6000610e1c82610fbe565b808452610e30816020860160208601611003565b610e3981611036565b602085010191505092915050565b6000610e5282610fb3565b808452610e66816020860160208601611003565b610e6f81611036565b602085010191505092915050565b6000600e82527f57726f6e6720617070726f6163680000000000000000000000000000000000006020830152604082019050919050565b610ebd81610fd6565b82525050565b60006020820190508181036000830152610edd8184610da3565b905092915050565b60006020820190508181036000830152610eff8184610e11565b905092915050565b60006020820190508181036000830152610f2081610e7d565b9050919050565b6000602082019050610f3c6000830184610eb4565b92915050565b6000604051905081810181811067ffffffffffffffff82111715610f6557600080fd5b8060405250919050565b600067ffffffffffffffff821115610f8657600080fd5b601f19601f8301169050602081019050919050565b6000602082019050919050565b600081519050919050565b600081519050919050565b600081519050919050565b6000602082019050919050565b600063ffffffff82169050919050565b600061ffff82169050919050565b82818337600083830152505050565b60005b83811015611021578082015181840152602081019050611006565b83811115611030576000848401525b50505050565b6000601f19601f830116905091905056fea265627a7a7230582005636d1c4bcffd3a3c755c830c657880fda1ce69581218960a3e17fa2e35063e6c6578706572696d656e74616cf50037",
  "source": "pragma solidity ^0.5.0;\npragma experimental ABIEncoderV2;\n\ncontract TrustBird {\n    mapping(string => string[]) private hashValueOfTrust;\n    mapping(string => string) private hashValueOfContract;\n    \n    address private owner;\n    \n    uint16 maxValue;\n    \n    uint32 public totalTrust;\n    uint32 public totalContract;\n    \n    constructor() public {\n        owner = msg.sender;\n        maxValue = 65535;\n    }\n\n    function getHashValueOfTrust(string memory email) public view returns(string[] memory) {\n        return hashValueOfTrust[email];\n    }\n    \n    function addHashValueOfTrust(string memory email, string memory token, uint16 index) public {\n        require(msg.sender == owner, \"Wrong approach\");\n        \n        totalTrust++;\n        \n        if(index == maxValue)\n            hashValueOfTrust[email].push(token);\n        else\n            hashValueOfTrust[email][index] = token;\n    }\n\n     function removeHashValueOfTrust(string memory email, uint16 index) public {\n        require(msg.sender == owner, \"Wrong approach\");\n        \n        totalTrust--;\n        delete hashValueOfTrust[email][index];\n    }\n    \n    function getHashValueOfContract(string memory token) public view returns(string memory) {\n        return hashValueOfContract[token];\n    }\n\n    function addHashValueOfContract(string memory trustToken, string memory contractToken) public {\n        require(msg.sender == owner, \"Wrong approach\");\n        \n        totalContract++;\n    \n        hashValueOfContract[trustToken] = contractToken;\n    }\n    \n    function removeHashValueOfContract(string memory trustToken) public {\n        require(msg.sender == owner, \"Wrong approach\");\n        \n        totalContract--;\n        delete hashValueOfContract[trustToken];\n    }\n}",
  "sourcePath": "/home/bstudent/TrustBird_Back-end/ethereum/contracts/TrustBird.sol",
  "compiler": {
    "name": "solc",
    "version": "0.5.0+commit.1d4f565a.Emscripten.clang"
  },
  "schemaVersion": "3.0.9",
  "updatedAt": "2020-11-11T09:00:13.112Z",
  "devdoc": {
    "methods": {}
  },
  "userdoc": {
    "methods": {}
  }
}